:100000000C942A000C9447000C9447000C94470071
:100010000C9447000C9447000C9447000C94ED009E
:100020000C9447000C9447000C9447000C94490032
:100030000C9447000C9447000C9447000C94470024
:100040000C94D6000C9447000C9447000C94470085
:100050000C94470011241FBECFE5D8E0DEBFCDBF12
:1000600010E0A0E6B0E0EEE7F4E002C005900D92EB
:10007000A037B107D9F720E0A0E7B0E001C01D929A
:10008000A637B207E1F70E94FC000C943D020C94E5
:1000900000001F920F920FB60F9211242F938F938F
:1000A0009F93EF93FF9325B381E090E00090700061
:1000B00002C0880F991F0A94E2F78095822385BBBE
:1000C0008091700091E0980F90937000853011F44A
:1000D00010927000E0917000E13011F0E43059F4BA
:1000E000F0E0E05AFF4FE081F0E0EA59FF4F8081F5
:1000F0008F7788BB09C0F0E0E05AFF4FE081F0E065
:10010000EA59FF4F808188BB25B381E090E00090E1
:10011000700002C0880F991F0A94E2F7822B85BBFA
:1001200082990FC080917500882319F0813029F0E1
:1001300015C081E08093750011C082E08093750046
:100140000DC080917500833019F0843029F006C00D
:1001500084E08093750002C01092750083990FC0EF
:1001600080917400882319F0813029F015C081E056
:100170008093740011C082E0809374000DC0809160
:100180007400833019F0843029F006C084E0809335
:10019000740002C010927400FF91EF919F918F91B3
:1001A0002F910F900FBE0F901F9018951F920F92D6
:1001B0000FB60F9211248F939F9384B195B19093B2
:1001C00073008093720081E0809371009F918F9102
:1001D0000F900FBE0F901F9018951F920F920FB6A1
:1001E0000F9211248F9386B1806486B98F910F90FE
:1001F0000FBE0F901F9018959FEF97BB84B38F632E
:1002000084BB95BB82B38C6082BB87EC87B98CE8DA
:1002100086B983E083BF89B7816089BF8CE08EBDDA
:1002200084E294EF9BBD8ABD89B7806189BF7894D1
:1002300080917100813009F0D9C080917200909155
:1002400073009C01220F331F880F991F880F991F7D
:10025000880F991F820F931F96958795969587957E
:1002600090937300809372004091720050917300DC
:100270009A01369527953695279536952795A5ECBD
:10028000B0E20E942E02929582958F7089279F700E
:10029000892708EE13E0809F9001819F300D909F89
:1002A000300D1124CA01821B930B9C0136952795B2
:1002B00036952795ABE7B4E10E942E029695879577
:1002C000C0E6D0E08883E0917200F09173009F0156
:1002D000369527953695279536952795A5ECB0E266
:1002E0000E942E02AC01529542954F7045275F70D7
:1002F0004527409FC001419F900D509F900D1124B4
:10030000AF01481B590B9A013695279536952795CD
:10031000ABE7B4E10E942E029C01369527950F2E83
:10032000F4E6FF2EF02DF29EC001F39E900D1124F5
:100330009A01281B390BADECBCEC0E942E0296955D
:1003400087959695879596958795898340917200B4
:10035000509173009A0136952795369527953695D5
:100360002795A5ECB0E20E942E02FC01F295E295E1
:10037000EF70EF27FF70EF27E09FC001E19F900D26
:10038000F09F900D1124FA01E81BF90B9F0136959F
:10039000279536952795ABE7B4E10E942E02AC0174
:1003A00056954795F49EC001F59E900D1124AF011E
:1003B000481B590B9A01ADECBCEC0E942E0296959D
:1003C000879596958795969587959C01220F331F63
:1003D000880F991F880F991F880F991F820F931FED
:1003E0009A01281B390B2A831092710080917500A5
:1003F0008230B1F4E0E6F0E0858191E0980F9583DA
:10040000893059F41582848191E0980F9483893062
:1004100021F4148283818F5F838383E0809375004E
:1004200080917400823009F003CFE0E6F0E085812E
:100430009FEF980F958381110DC089E0858384819A
:100440009FEF980F9483811105C089E08483838195
:100450008150838383E080937400EACEA29FB00131
:10046000B39FC001A39F700D811D1124911DB29FE8
:0E047000700D811D1124911D0895F894FFCF89
:10047E00010203020208C0F9A4B0999282F880909A
:00000001FF
